:100000000C942C010C9473010C9473010C94781BC8
:100010000C9473010C9473010C9473010C94730190
:100020000C9473010C9473010C94A1160C945D163E
:100030000C944A1A0C9473010C9473010C94730180
:100040000C9473010C9473010C9473010C94730160
:100050000C9473010C94261A0C9473010C94730184
:100060000C9473010C9473010C9473010C94730140
:100070000C9473010C9473010C9473010C94730130
:100080000C9473010C9473010C9473010C94730120
:100090000C9473010C9473010C9473010C94730110
:1000A0000C9473010C9473010C94730114002B00D5
:1000B00029001A000800150017001C0000000000AD
:1000C00000000400E30000001600070009000A0019
:1000D0002C000000000000001D00E100E0001B00FB
:1000E0000600190005009100E30000000000000078
:1000F0002D002E0018000C00120013002F003000FD
:100100002A00000000002C000B000D000E000F0064
:1001100033003400000028000000E70090001100C8
:1001200010003600370038003100E500E6004000DE
:1001300005010902A10185020901A10005091901B2
:10014000290815002501950875018102050109306E
:1001500009311581257F95027508810609381581B9
:10016000257F950175088106050C0A380215812541
:100170007F950175088106C0C005010980A1018530
:100180000319012AB700150126B7009501751081E2
:1001900000C0050C0901A101850419012AA002155E
:1001A0000126A002950175108100C005010906A174
:1001B00001050719E029E71500250195087501815A
:1001C000029501750881010507190029FF15002610
:1001D000FF00950675088100050819012905950598
:1001E00075019102950175039101C009023B00025E
:1001F0000100A0FA09040000010301010009211116
:100200000100012240000705810308000A090401DA
:10021000000103000000092111010001227B0007F9
:1002200005820320000A12011001000000080912D3
:1002300049460100010200010C0353005500310042
:100240003200300000000C036500330077003200FC
:10025000710000000403090411241FBECFEFDAE08F
:10026000DEBFCDBF04B603FE27C08091450290914A
:100270004602A0914702B09148028730904BA740B8
:10028000B04BD1F4109245021092460210924702F0
:100290001092480214BE84B7877F84BF0FB6F894CB
:1002A000A895809160008861809360001092600042
:1002B0000FBEE0E0F8E3099511E0A0E0B1E0EAE567
:1002C000F9E302C005900D92A635B107D9F722E0F7
:1002D000A6E5B1E001C01D92A534B207E1F70E9486
:1002E00078170C94871C0C940000E8EDF0E08081F6
:1002F0008E7F80831092E2001092DA001092E1006B
:10030000A0EEB0E08C9181608C9380818F778083A8
:1003100019BCA7EDB0E08C918E7F8C9380818F7E8D
:10032000808310921E0208952091E4003091E50030
:1003300095E6A9012091EC00822F817020FF06C074
:100340008091E80080FF06C080E008952091E800D9
:1003500022FD1AC080912B02882389F0853089F014
:100360008091EB0085FD0FC02091E4003091E50005
:1003700042175307F9F29150E1F684E0089582E0C4
:10038000089583E0089581E00895EF92FF920F931E
:100390001F93CF937C018B010E949401C82F811180
:1003A00017C08091E80085FD0BC08091E8008E7732
:1003B0008093E8000E949401882399F3C82F08C015
:1003C000F70181917F018093F1000150110949F7F4
:1003D0008C2FCF911F910F91FF90EF9008958091F6
:1003E0002D0287FF13C08091E80082FF06C0809134
:1003F000E8008B778093E80004C080912B02811184
:10040000F2CF089580912B028823D9F38091E800E0
:1004100080FFF8CF8091E8008E77ECCF982F9093F3
:10042000E900242F762F50E0891731F07091EC000D
:100430002091ED005091F00021FD07C09F5F9730A3
:1004400071F78093E90081E008953091EB003E7FE1
:100450003093EB003091ED003D7F3093ED00309113
:10046000EB0031603093EB007093EC002093ED00D3
:100470005093F0002091EE0027FDE0CF80E008953A
:10048000CF92DF92EF92FF920F931F93CF93DF9360
:10049000C8EDD0E088818F7E8883E7EDF0E0808131
:1004A0008160808384E082BF81E080931E02888126
:1004B0008E7F888302EE10E0F80110821092DA003D
:1004C00081EEC82ED12CF601108288818F77888327
:1004D00088818068888388818F7D888319BC109289
:1004E0002B0210922C0210922A021092290290EEF6
:1004F000E92EF12CF70180818B7F808388818160D8
:10050000888342E060E080E00E940E02F601808174
:100510008E7F8083F8018081816080838081886004
:100520008083F70180818E7F8083888180618883CA
:10053000DF91CF911F910F91FF90EF90DF90CF90BF
:100540000895FC0180913302909134028617970739
:10055000A0F06115710529F49091E8009E779093C1
:10056000E80090E06115710551F4911108C0809187
:10057000E80082FF34C080E00895BC01F2CF809192
:100580002B028823C1F18530C1F18091E80083FD01
:1005900030C08091E80082FDEACF8091E80080FFC2
:1005A000E1CF8091F3002091F200382F61157105A1
:1005B00019F02830310558F091E02830310509F064
:1005C00090E02091E8002E772093E800CBCF819136
:1005D0008093F100615071092F5F3F4FE7CF809109
:1005E0002B02882341F0853041F08091E80083FFA1
:1005F000BECF81E0089582E0089583E0089580E011
:1006000008958091200208959C014FB7F89480913D
:10061000D9019091DA01A091DB01B091DC014FBFCB
:10062000821B930B08952FB7F8946091D9017091B4
:10063000DA018091DB019091DC012FBF08952FB783
:10064000F8948091D9019091DA01A091DB01B091E9
:10065000DC012FBF08958091D40181111092D40143
:1006600008958091D3019091D201892B9091D1016D
:10067000892B809358019091D401992391F0892B73
:100680008093580120E08AE591E0FC013191CF018F
:1006900031112F5FF1E080369F07B9F721110E94D9
:1006A0002B03E091F501F091F601309731F00280D3
:1006B000F381E02D88E591E009940895EAE5F1E001
:1006C0009191891303C0DF0111971C9291E0E036EC
:1006D000F907B1F70895AAE5B1E0EFEF90E02D91A9
:1006E000821751F0EF3F19F4211101C0E92F9F5FEC
:1006F0009630A9F7EF3F09F408950E2E000CFF0B7A
:10070000E85AFE4F828308952BE0929F800D1124BA
:10071000982F977086958695869525E0829FF001A3
:100720001124ED55FE4F50E040E080E0219130E093
:10073000092E02C0369527950A94E2F721703327D7
:10074000042E01C0220F0A94EAF7822B4F5F5F4FFD
:100750004530510559F708952BE0929F800D1124E3
:10076000982F977041E001C0440F9A95EAF786955B
:100770008695869595E0899FF0011124ED55FE4FF1
:1007800090E080E070E05191DF0111979B01082E0D
:1007900002C0369527950A94E2F721702195252706
:1007A000242325272C9301968530910561F7089520
:1007B0008091A20190917101981301C008958F5FFB
:1007C0008770FACF882341F080959091D3018923D7
:1007D0008093D3010C9431030895882339F09091CC
:1007E000D301982B9093D3010C9431030895209159
:1007F0006701309168012817390771F090936801FB
:1008000080936701E091F501F091F601309721F0B6
:100810000084F185E02D09940895209165013091BF
:1008200066012817390771F090936601809365017E
:10083000E091F501F091F601309721F00680F78103
:10084000E02D09940895E091F501F091F6013097BB
:1008500021F00190F081E02D099480E008950E943C
:100860001F039C0190910C0280910D02982B21F0A6
:10087000309309022093080290910E0280910F029A
:10088000982B21F03093060220930502E091F501A8
:10089000F091F601309749F082E080930A020480DB
:1008A000F581E02D8AE092E00994089590E080E0DF
:1008B0000E940D0490E080E00E94F7031092D201A4
:1008C0001092D1010E94310386E0EAE0F2E0DF01FC
:1008D0001D928A95E9F71092070210920402109275
:1008E0006A010C942F046093E1017093E2018093FC
:1008F000E3019093E4010C9456040F931F9341E09D
:1009000050E060E070E004C0440F551F661F771F81
:100910008A95D2F7CB01BA01609570958095909534
:100920000091E1011091E2012091E3013091E40195
:1009300060237123822393231F910F910C947304DE
:100940009091D001809589238093D001282F277022
:1009500039F4282F082E000C330B9217130621F4BC
:100960009091E60192FF07C08595859585950E9437
:100970007D041092D00108950F931F9341E050E041
:1009800060E070E004C0440F551F661F771F8A9512
:10099000D2F78091E1019091E201A091E301B09141
:1009A000E4018A019B01082B192B2A2B3B2BC9013F
:1009B000B8011F910F910C9473046093D50170934B
:1009C000D6018093D7019093D8010C94560440919E
:1009D0000C028D3E59F480910D0287FF0DC01092DC
:1009E0000D0241110BC01092070208C08E3E81F427
:1009F00080910D0218169CF3442381F080910E0221
:100A000090910F02892B09F05AC0109204020895A8
:100A10008F3E49F447FFF0CF10920C0280910D02F7
:100A20008111ECCFE0CF803F19F41416ACF3E4CF82
:100A300090910E02893F29F41916F4F610920E02D5
:100A4000DBCF8A3F19F497FFD7CFF8CF90910F02F1
:100A50008B3F29F497FFD0CF10920F02CDCF8C3F60
:100A600019F41916CCF3C8CF9FE0980F983090F482
:100A7000815F990B21E030E0B90102C0660F771F5A
:100A80008A95E2F7CB01809590910B0289238093A0
:100A90000B02B2CF8D3F31F480916A018E7F80933B
:100AA0006A01AACF8E3F21F480916A018D7FF7CF32
:100AB0008F3F09F0A1CF80916A018B7FF0CF08951D
:100AC000882309F459C0823871F40E94230481FFFD
:100AD00053C089E30E946B030E94310389E30E94A3
:100AE0005E030C943103833859F40E94230480FF81
:100AF00043C083E50E946B030E94310383E5EFCF7F
:100B0000843859F40E94230482FF36C087E40E948F
:100B10006B030E94310387E4E2CF9CEF980F913A78
:100B2000F0F290E2980F983088F4877021E030E07E
:100B3000A90102C0440F551F8A95E2F7CA018095AA
:100B40009091D30189238093D301CBCF9BE5980F5C
:100B5000933020F490E080E00C940D0498E5980F19
:100B6000973120F490E080E00C94F7038D3E20F064
:100B70000E94E7040C942F04089580916A0180FD7F
:100B800016C081FD16C082FD16C080910402882324
:100B9000A1F0883280F428E0829FC001112468E22D
:100BA00070E00E94171C862F672B39F0089582E0B1
:100BB000089584E0089588E0089581E00895809183
:100BC0006A0180FD14C081FD14C082FD16C08091B1
:100BD0000702882381F0843180F422E3829FC001E0
:100BE000112464E170E00E94171C862F08958CE0A8
:100BF000089589E1089585E0089582E308958D3E82
:100C000031F40E94DF05819580930D0208958E3E98
:100C100019F40E94DF05F8CF8F3E31F40E94DF0502
:100C2000819580930C020895803F19F40E94DF059E
:100C3000F8CF893F29F40E94BD0580930E020895E4
:100C40008A3F21F40E94BD058195F7CF8B3F31F497
:100C50000E94BD05819580930F0208958C3F19F481
:100C60000E94BD05F8CF9FE0980F983070F4815F27
:100C7000990B21E030E001C0220F8A95EAF78091BC
:100C80000B02822B80930B0208958D3F31F48091EB
:100C90006A01816080936A0108958E3F21F48091FA
:100CA0006A018260F7CF8F3FB9F780916A01846053
:100CB000F1CFF894E82FE295EF70F0E031A1282F02
:100CC0002F7081E090E001C0880F2A95EAF7982FF5
:100CD0009095932391A392A1892B82A37894089550
:100CE0009091E50192FF06C0282F28712830F9F471
:100CF000877F846093FF06C0282F28712831F1F484
:100D0000877E84612091E60120FF06C0382F38716C
:100D10003830D9F4877F816021FF06C0282F2871E1
:100D20002831D1F4877E816194FD877E0895282F34
:100D300024712430F9F68B7F8860DCCF282F247152
:100D4000243101F78B7E8861DDCF382F317131304E
:100D500019F78E7F8860E0CF282F2171213121F78C
:100D60008E7E8861E1CFCF93DF93972F70E02BE0E9
:100D7000929F600D711D1124FB0132E4839FE00DF1
:100D8000F11D1124EE0FFF1FE455FF4FC591D491C3
:100D9000CE01C238D105B9F1E8F5C133D10509F466
:100DA00099C050F5C932D10509F48DC0CA32D105B8
:100DB00009F497C0C11521E5D20708F0BFC0C115DD
:100DC00030E5D30708F016C1C83ED10508F09DC034
:100DD000C03ED10568F5C83AD10508F089C0C53ACA
:100DE000D10508F0FFC0C130D10511F1209709F4F9
:100DF00043C02497E8F440C0C533D10509F45CC072
:100E0000C933D105B9F62091E501237089F080EE50
:100E100090E00EC0C33ED10591F168F4C03ED1050B
:100E2000F9F0C23ED10531F62091E50122FD20C046
:100E3000DF91CF910895C63ED10561F1C73ED1053E
:100E400081F1C43ED10509F0B5CF2091E60121FF23
:100E5000EFCF8091E50184FD0FC087EE90E0E8CFF1
:100E60002091E50120FD12C13091E60130FFE0CF75
:100E700083EE90E024FFDCCF90E080E0D9CF20919A
:100E8000E50122FD06C13091E60130FDC0CF24FF0F
:100E9000CFCFF2CF2091E50123FFCACF24FDECCFC5
:100EA000DCCF2091E50123FDF7C03091E60131FF51
:100EB000EECF84EE90E0BCCF2091E50125FFB8CFC6
:100EC00089E290E0B5CF2091E50125FFB1CF85E320
:100ED00090E0AECF2091E50126FFAACF8AE290E014
:100EE000A7CF2091E50126FFA3CF81E390E0A0CF1B
:100EF000CF3BD10508F6C85AD0E0CC0FDD1FC95E44
:100F0000DE4F88819981946493CFC11520E2D20786
:100F100060F4C11531E0D30708F08ACFCE019065A7
:100F2000CD3ED10508F084CFA7CFC11580E4D80706
:100F300008F4A2CFCE019F70906A7ACFC11595E5D3
:100F4000D90710F5C11524E5D20708F088C0C115EE
:100F500033E5D30708F06FC0C11582E5D80708F460
:100F600065C09E012370332781E090E002C0880FA6
:100F7000991F2A95E2F7C695C69520E2C29FE00127
:100F800011248C2B9D2B50C0C11599E5D907A0F4D5
:100F9000C11528E5D20708F067C0C11536E5D307AB
:100FA00008F06ACF8C2F0E94700690E0982F882757
:100FB00088279F7190623CCFC1158AE5D80708F455
:100FC00058C0CE0190568115904208F055CF8D2F14
:100FD0008F710E94700690E0982F882788279F7154
:100FE0008C2BE8CFC55AD0E0CC5EDE4F888190E0F4
:100FF00090641ECF9E01E4E036952795EA95E1F7CF
:1010000023708C2F86958695837030E2839FC00174
:101010001124922BC37021E030E002C0220F331F55
:10102000CA95E2F7822B932B9C6802CF9C2F8827CE
:10103000816F906AFDCE9E012370332781E090E09E
:1010400002C0880F991F2A95E2F7C695C69530E22F
:10105000C39FE00111248C2B9D2B9A68E9CE9C2F15
:101060008827846F906AE4CE9C2F8827806F906ACF
:10107000DFCE8C2F8F700E94700634E0D695C79516
:101080003A95E1F7CF709C2F9069D2CE89E390E03A
:10109000CFCE82EE90E0CCCE86EE90E0C9CEBF926D
:1010A000CF92DF92EF92FF920F931F93CF93DF9334
:1010B0008C01C090E101D090E201E090E301F0905A
:1010C000E4018091D5019091D601A091D701B09112
:1010D000D801C82AD92AEA2AFB2ACFE1D0E0BC2EBF
:1010E000D701C6010C2E04C0B695A7959795879594
:1010F0000A94D2F780FD0EC0219788F7B12C8B2D72
:10110000DF91CF911F910F91FF90EF90DF90CF90E3
:10111000BF900895B8018C2F0E94B306019761F328
:10112000EECFCF93DF93EC010E944F08BE01DF9119
:10113000CF910C94B3060E949108292F2F7092959D
:101140009F7092509E3078F4E92FF0E0E757F34E0D
:101150000C942B1C803F19F020F4883E20F481E091
:101160000895843FE1F380E00895883EC0F3813F15
:10117000D1F7F5CF822F8695869586950895CF93E2
:10118000DF9300D00F92CDB7DEB790912B02943051
:1011900019F589837B836A8382E08093E9008FEF6E
:1011A0009091E800815095FD06C095ED9A95F1F774
:1011B00000008111F5CF8091E80085FF0DC050E05F
:1011C00040E063E070E0CE0101960E94C50180918D
:1011D000E8008E778093E8000F900F900F90DF91DA
:1011E000CF910895BC0184E00C94BF08BC0183E05A
:1011F0000C94BF089C0182E08093E9009FEF8091EE
:10120000E800915085FD06C085ED8A95F1F7000054
:101210009111F5CF8091E80085FF0CC050E040E0CF
:1012200066E070E0C9010E94C5018091E8008E77F8
:101230008093E8000895CF93DF93EC0181E08093E1
:10124000E9008FEF9091E800815095FD06C095ED83
:101250009A95F1F700008111F5CF8091E80085FFA4
:1012600014C050E040E068E070E0CE010E94C5018B
:101270008091E8008E778093E80088E0FE01A1E28B
:10128000B2E001900D928A95E1F7DF91CF91089538
:10129000CF93C82F882309F490C08238C1F40E94EC
:1012A000230481FD8AC089E30E946B030E943103FD
:1012B0002FEF81EE94E0215080409040E1F700C094
:1012C000000089E30E945E03CF910C9431038338C0
:1012D000A1F40E94230480FD70C083E50E946B038B
:1012E0000E9431032FEF81EE94E021508040904026
:1012F000E1F700C0000083E5E5CF8438A1F40E9447
:10130000230482FD5AC087E40E946B030E943103CC
:101310002FEF81EE94E0215080409040E1F700C033
:10132000000087E4CFCF8CEF8C0F813A68F4EAE5B8
:10133000F1E08191C817D9F121E0E036F207C9F751
:101340008C2F0E946B03C0CF80E28C0F883068F432
:10135000C77021E030E001C0220FCA95EAF7809102
:10136000D301822B8093D301AFCFEBE5EC0FE330B9
:1013700040F4F0E0EC5EFE4F808190E0CF910C9461
:101380000D04E8E5EC0FE73150F4F0E0EE0FFF1F3D
:10139000E95EFE4F80819181CF910C94F703CD3EA1
:1013A00060F08C2F0E94FF05CF910C942F048C2F9E
:1013B0000E945E030E943103C3CFCF9108950F9323
:1013C0001F93CF93DF93C62FD42F022FFC0182816E
:1013D0008823A1F0609337020E941F039093360286
:1013E00080933502C77081E001C0880FCA95EAF783
:1013F000DF91CF911F910F910C94ED0380913702F3
:10140000681338C080913502909136020E9404031F
:10141000883C910578F510E21D0FCD17B9F080E2F8
:101420008C0F883040F4C77081E001C0880FCA95E6
:10143000EAF70E94E203183048F481E09D2F97708C
:1014400001C0880F9A95EAF70E94ED03802F0E9451
:101450004809802F0E946005183098F4D77081E009
:1014600001C0880FDA95EAF7DF91CF911F910F91B4
:101470000C94E203C77081E001C0880FCA95EAF7B7
:10148000F3CFDF91CF911F910F9108958091640167
:10149000811110C08091D80080618093D8008AE1CA
:1014A0008A95F1F700C08091D90080FF0AC081E0E1
:1014B0008093640181E090916401913009F080E0B3
:1014C000089582E0809364010E94750110922B02BE
:1014D000F1CFCF9384E090E00E94451CC82F82E2B8
:1014E00090E00E94451C982F8C2FCF9108956AEEB2
:1014F0007EEF90E080E00E94711C60E082E090E06E
:101500000E94531C60E083E090E00E94531C109204
:10151000D5011092D6011092D7011092D80160E047
:1015200084E090E00E94531C60E082E290E00E9420
:10153000531C60E085E090E00E94531C60E086E070
:1015400090E00E94531C6FEF87E090E00E94531CD4
:1015500040E050E0BA0188E090E00E94651C60E045
:101560008DE090E00E94531C40E050E0BA0188E119
:1015700090E00E94651C60E087E190E00E94531CAF
:1015800040E050E0BA018CE190E00E94651C70E000
:1015900060E080E290E00E94711C40E050E0BA01FF
:1015A00088E190E00E94651C40E050E0BA018FE0C5
:1015B00090E00E94651C40E050E0BA0183E190E0B9
:1015C0000C94651CCF93C091E601C2FB992790F95A
:1015D000981781F080FBC2F9C093E6016091E501A4
:1015E00084E090E00E94531C6C2F82E290E0CF9147
:1015F0000C94531CCF9108951092D301EAE5F1E0C9
:1016000086E0DF011D928A95E9F70C9456041F933A
:10161000CF93DF93CDB7DEB7AA970FB6F894DEBFAE
:101620000FBECDBF8DE292E02091F100FC0121932D
:10163000CF01F2E085339F07B9F780912E02833006
:1016400009F46FC0B8F4813009F446C0823009F45F
:10165000B0C08091E80083FF7BC280912D02909101
:101660002E029A3008F074C2E92FF0E0E956F34EEA
:101670000C942B1C8A3009F48BC08B3009F46EC09B
:10168000893039F780912D02813219F7809131022A
:10169000909132020297E8F68091E800877F80936C
:1016A000E8008091E80082FF37C09091F3008091BC
:1016B000F200029729F48091F1008B7F813021F4B0
:1016C0008091F100809320028091E8008B778093D5
:1016D000E8000E94EF01BDCF80912D02813A09F010
:1016E000B8CF8091E800877F8093E8008091310235
:1016F00090913202892B61F468E081E292E070E01F
:101700000E94A1028091E8008B778093E800A1CF2E
:1017100060E090E080E0F3CF80912B028111C1CF97
:1017200098CF80912D02813A09F093CF80913102B8
:1017300090913202892B09F08CCF8091E800877F4D
:101740008093E8008091E80080FFFCCF80910B013E
:101750008093F1008091E8008E77B9CF80912D02BF
:10176000813209F076CF8091310290913202892B3B
:1017700009F06FCF8091E800877F8093E8000E9496
:10178000EF0180912F0280930B010E94FC0A61CF30
:1017900080912D02813209F05CCF8091E800877F33
:1017A0008093E8000E94EF018091300280931F0235
:1017B00050CF80912D02813A09F04BCF8091E80003
:1017C000877F8093E8008091E80080FFFCCF8091C4
:1017D0001F02BECF803899F0823809F0B9C18091DC
:1017E00031028F70873008F0B3C18093E900809197
:1017F000EB0085FB882780F91092E90006C08091F4
:10180000290290912A02911182609091E800977FBD
:101810009093E8008093F1001092F1008091E8002D
:101820008E7792C1882309F480C1823009F090C17B
:1018300080912F02811183C1809131028F702FEF2F
:10184000280F263008F084C18093E9002091EB0036
:1018500020FF75C1933031F48091EB00806280935A
:10186000EB006DC19091EB0090619093EB0021E053
:1018700030E001C0220F8A95EAF72093EA00109227
:10188000EA008091EB008860EACF811161C110917C
:101890002F021F778091E3008078812B8093E300F3
:1018A0008091E800877F8093E8000E94EF0180919B
:1018B000E80080FFFCCF8091E30080688093E30024
:1018C00082E0111183E080932B0242C18058823064
:1018D00008F03EC180912F02909130028C3D23E0B0
:1018E0009207A1F583E08A838AE289834FB7F8944F
:1018F000DE01139620E03EE051E2E32FF0E050934A
:101900005700E49120FF03C0E295EF703F5FEF7056
:101910008E2F90E0EA30C0F0C7968D939D932F5F95
:10192000243159F74FBF8091E800877F8093E8000A
:101930006AE270E0CE0101960E94A1028091E80067
:101940008B778093E80004C1C096E7CF40913102C5
:1019500050913202292F33272330310509F444C036
:1019600078F52130310509F46FC08BE390E0EBEEA0
:10197000F1E02230310509F0EBC02091E800277F2B
:101980002093E800209133023091340282179307AC
:1019900008F49C0140E02115310509F064C04111B3
:1019A00062C08091E80082FDC9CF80912B0288231C
:1019B00029F2853019F28091E80083FFF2CFBECF83
:1019C00021323105A9F12232310509F0C1C041159A
:1019D000510509F443C04130510509F0B9C08BE706
:1019E00090E0E0E3F1E0C9CF992781309105C1F0A3
:1019F000009759F0029709F0ABC0E8E3F2E0E491F8
:101A00008E2F90E0E8E3F2E007C0E4E5F2E0E49135
:101A10008E2F90E0E4E5F2E0009709F499C0ADCF95
:101A2000E6E4F2E0E4918E2F90E0E6E4F2E0F4CF19
:101A30004115510571F04130510509F089C089E027
:101A400090E0E6E1F2E099CF82E190E0E6E2F2E0B8
:101A500094CF89E090E0EDEFF1E08FCF80E490E06B
:101A6000EBEAF1E08ACF80912B02882309F466CF5C
:101A7000853009F463CF8091E80083FD5FCF8091CA
:101A8000E80082FD8ECF8091E80080FF84CF9091A6
:101A9000F3008091F2002115310519F0883091058D
:101AA00050F041E0089709F040E08091E8008E771F
:101AB0008093E80070CF44914093F100319621501B
:101AC00031090196E8CF803809F042C08091E800E2
:101AD000877F8093E80080912C028093F1009ECE56
:101AE000811136C010912F02123090F58091E800DC
:101AF000877F8093E80010932C020E94EF0111234E
:101B000011F084E005C08091E30087FDFACF81E009
:101B100080932B0242E061EC81E00E940E0242E2DF
:101B200061EC82E00E940E0213C080912F0281308E
:101B300079F481E0933009F080E080932A021092DA
:101B4000E9008091E800877F8093E8000E94EF0120
:101B50008091E80083FF0AC08091E800877F80932E
:101B6000E8008091EB0080628093EB00AA960FB6AC
:101B7000F894DEBF0FBECDBFDF91CF911F910895C6
:101B80004F925F926F927F928F929F92AF92BF928D
:101B9000CF92DF92EF92FF920F931F93CF93DF9339
:101BA00000D000D00F92CDB7DEB77C01FC0183815D
:101BB0009481892B39F01081D180812F8D218F3F25
:101BC00009F057C40F900F900F900F900F90DF9176
:101BD000CF911F910F91FF90EF90DF90CF90BF902A
:101BE000AF909F908F907F906F905F904F900895EF
:101BF0000E944F08082F682F89819A810E94AC03A8
:101C0000E12FF0E02BE0D29EE00DF11D112432E433
:101C1000039FE00DF11D1124EE0FFF1FE455FF4F50
:101C200005911491043F8CE5180709F492C0B0F5B2
:101C3000093DECE51E0709F488C00A3DFCE51F07D5
:101C400009F493C0083D2CE51207B1F526E241EEF8
:101C500061EEC7010E94DF098091D001877009F40D
:101C6000B1CFF7018281882309F4ACCF82E00F90D5
:101C70000F900F900F900F90DF91CF911F910F91C8
:101C8000FF90EF90DF90CF90BF90AF909F908F909C
:101C90007F906F905F904F900C94A004063F3CE5BE
:101CA000130709F45EC008F458C027E245EE66EE5B
:101CB000073F9CE5190769F2F7018281882309F43F
:101CC000E9C3109237020230FCE51F0708F42EC169
:101CD00006312CE5120730F0C8018B5F9C4509974F
:101CE00008F024C10E94690A9093E6018093E501FF
:101CF00000313CE5130709F4E8C008F076C008306D
:101D00009CE5190709F4D7C008F045C00430FCE58C
:101D10001F0709F4C8C060F502303CE5130709F459
:101D2000B8C003301C4509F4BAC06091E5011091B8
:101D3000E60184E090E00E94531C612F82E290E073
:101D40000E94531C0E94FC0A87CF27E245EE65EEF5
:101D500080CF26E241EE60EE7CCF27E245EE64EED6
:101D600078CF26E241EE62EE74CF28E241E0EFCF79
:101D70008091E501806106309CE5190709F48CC06B
:101D80008091E501886007301C4508F485C080918A
:101D9000E501806281C08091E5018D7F0C30FCE51A
:101DA0001F0709F479C070F48091E5018C600A3056
:101DB0003CE5130709F470C008F481C08091E50187
:101DC0008E7F6AC08091E501877F0E309CE5190700
:101DD00009F462C08091E5018B7F0F301C4508F447
:101DE0005BC08091E5018F7E57C00C3FFCE51F076B
:101DF00009F45DC030F503313CE5130709F46DC00B
:101E000078F401319CE5190709F463C002311C45DF
:101E100009F08BCF0E94FC0A8091E5018F773CC0CE
:101E20000531FCE51F0709F460C008F474C0809117
:101E3000E60181600B3F1C4509F077CF8093E601F6
:101E400074CF01158DE5180709F44BC088F4809113
:101E5000E6018D7F0E3FECE51E0781F38091E601E0
:101E60008E7F0F3F1C4550F38091E6018360E6CFE3
:101E700002302DE5120709F457C008F442C060E0B3
:101E800003301D4509F051CF8EE090E00E94531CB5
:101E90004CCF8091E50181608093E50146CF809130
:101EA000E5018260F9CF8091E5018460F5CF8091F2
:101EB000E6018260C3CF8091E5018064EDCF0E948E
:101EC000FC0A8091E5018068E7CF8091E5018F7D74
:101ED000E3CF8091E5018F7BDFCF8091E501837FA8
:101EE000DBCF8091E6018C7FA9CF8091E50182FB59
:101EF000992790F921E0922790FB82F990FB83F9D2
:101F0000CBCF8091E601982F909591708E7F892B91
:101F100090FB81F993CF0E94FC0A9091E501892FF3
:101F200097FB87F98058B8CF61E0AECF06319CE5CA
:101F3000190709F0BAC28091D3018A7A91E009F4B5
:101F400090E090936901811106C089E20E946B03C1
:101F50000E94310381CE85E3F9CF85E3A3C20E94BD
:101F6000FC0AEFEFF4E32CE0E150F0402040E1F711
:101F700000C0000087E797E790930108809300086E
:101F800088E19AE00FB6F894A895809360000FBEA0
:101F900090936000FFCF81E0A8C280E0A6C2C80194
:101FA0000E948403D82EB2C2212F2F70A22E107F40
:101FB00019F0A29420EFA222DD20C9F0AA2069F036
:101FC00080E2800F883010F081100BC08091D30127
:101FD000A82AA092D3010E943103802F0E944809B1
:101FE00018C08091D201A82AA092D201F4CF802FEC
:101FF0000E946005AA2069F0A094005E083010F0ED
:10200000811045C08091D301A822A092D3010E94E3
:102010003103EB2DE850FF0B349710F40E9423049A
:10202000CC20A9F08091D00180FD11C0F70112826F
:102030008595859585950E94BC04C7010E94C00DB9
:102040008091D0018595859585950E947D0485E0D8
:10205000F701DE01119601900D928A95E1F78981D1
:102060009A810E9484039A81E981F0E02BE0929F9B
:10207000E00DF11D112432E4839FE00DF11D1124C8
:10208000EE0FFF1FE455FF4F859194919BCD8091FA
:10209000D201A822A092D201BACF312F3F70932E45
:1020A000107F103219F0929490EF9922882071F0ED
:1020B00081E0881681F1DD20D9F1AA2091F1F701A4
:1020C000858180FF8ACF8F7085832BC0DD20B1F0A2
:1020D0009091D401892D892BA11003C00E94ED039A
:1020E00098CFE1E0AE12FACF2091E60122FD91CF28
:1020F000981709F48ECF8093D4018BCFA11006C01E
:102100000E942B03892D0E94E20383CFF1E0AF16DA
:1021100009F47FCFF5CFDD2031F025E02A1508F452
:1021200078CF892DDBCF34E03A1508F472CFEACFAF
:10213000AA2041F3F9E38F1295C12FEF37EE83E028
:10214000215030408040E1F700C000008BC1812F5A
:1021500086958695837061F0813009F05ACFC80169
:102160009370D11002C090E080E00E94F70351CF3D
:10217000C8019370D11002C090E080E00E940D046D
:1021800048CF802FDD2029F00E94FF050E942F04F8
:1021900040CF0E94E704FACF812F837009F066C018
:1021A000D11037CF802F829586958770880F880F42
:1021B000602F6F70462E512C712C612C082E04C09C
:1021C000440C551C661C771C0A94D2F740E050E082
:1021D000BA0104FF0FC04FE050E060E070E004C0BF
:1021E000440F551F661F771F8A95D2F7409550956B
:1021F00060957095812F869586958370823019F150
:10220000D8F40091D5011091D6012091D7013091D9
:10221000D801813069F04429552966297729CB01F5
:10222000BA0160237123822393230E94DD04F1CE3F
:10223000402A512A622A732ACB01BA0164297529DE
:1022400086299729F2CF44295529662977290091B3
:10225000D5011091D6012091D7013091D801CB0141
:10226000BA016027712782279327DFCF8695DD206B
:1022700011F0812F8170882309F4CBCE802F8295B5
:1022800086958770880F880F602F6F70462E512CAF
:10229000712C612C082E04C0440C551C661C771C44
:1022A0000A94D2F740E050E0BA0104FF0FC04FE0BB
:1022B00050E060E070E004C0440F551F661F771FB8
:1022C0008A95D2F74095509560957095812F8695A7
:1022D00086958370823019F1D8F40091E101109154
:1022E000E2012091E3013091E401813069F0442959
:1022F000552966297729CB01BA01602371238223EE
:1023000093230E94730485CE402A512A622A732A9D
:10231000CB01BA016429752986299729F2CF44296E
:102320005529662977290091E1011091E201209158
:10233000E3013091E401CB01BA01602771278227C4
:102340009327DFCF1F70DD2029F0812F0E94BC046E
:10235000802FC4CE802F0E94E203812F0E947D0433
:1023600058CE802F92EF891609F454C0981578F052
:10237000E0EF8E1639F1F1EF8F1609F443C0DD203E
:1023800009F46BC0A11029CE812F8F7140C023EFBB
:10239000821609F444C034EF8312F1CFDD2009F432
:1023A00051C01F71812F0E94BC048091E60182FD03
:1023B00007C0E8E01E9FC001112483608093D00114
:1023C000812F25C0DD20C9F084E08A1508F421CED4
:1023D0001F7161E070E080E090E004C0660F771F3D
:1023E000881F991F1A95D2F70091E1011091E2011F
:1023F0002091E3013091E401A0CF95E09A1508F413
:1024000008CEE6CF812F8F71DD2009F4A7CF0E947F
:10241000BC04FFCD812F8F71DD20C9F39FCF60E019
:1024200070E0CB01DD2009F46CCF1F7161E070E03A
:1024300080E090E004C0660F771F881F991F1A95EF
:10244000D2F75FCF81E00E94A004F1E0FA1508F016
:10245000E0CD82E00E94A004DCCDAA2039F08933CF
:1024600009F46BCE802F0E946005D3CD812F8F7130
:1024700075CF85E0DE01119601900D928A95E1F706
:10248000F701228189819A812111B2CB0E948403B4
:10249000082FB6CB06311C4551F580916901811199
:1024A0005CCD89E20E945E0353CD0B352DE512070A
:1024B00009F471CD58F401158CE5180709F44FCDD6
:1024C0000F3D1C45A1F40E94770AC6CB0C35EDE503
:1024D0001E0709F462CD0D351D4549F48091E601D2
:1024E00082FB882780F991E089270E94E20AF701A0
:1024F000828100811181882309F451CDC8010E9495
:102500004F08D82E682FC8010E94AC03B8018D2D4A
:102510000E94B3068C01882EF701D280A580A29478
:102520004FE0A4228091D0018770A1F0CD2CDD2056
:1025300091F0812F807F803421F080E2800F8830FD
:1025400048F082E00E94A0048091D0018770CC24E2
:10255000C3948111C12CB12EB2943FE0B322FBE0B1
:10256000FB1508F456CDEB2DF0E0EF55F34E0C942F
:102570002B1C1F93CF93DF9380917001807FA9F470
:1025800080916D01882389F08091A201D091710121
:1025900060916B0170916C01A0916E01B0916F011F
:1025A000C62FC72316E0D81304C0DF91CF911F9127
:1025B000089590E0109711F0CF3F19F401968770BD
:1025C000F2CF189F9001199F300D1124F901EE5898
:1025D000FE4F41814713F2CF40814613EFCF428136
:1025E0004111ECCF438154814A1B5B0B483C5105A0
:1025F00028F7809170018F70806180937001F901DC
:10260000E958FE4F80818F70806180838BE691E076
:102610000E94C00DDF91CF911F910C94D803AF920F
:10262000BF92CF92DF92EF92FF920F931F93CF93BF
:10263000DF93CDB7DEB761970FB6F894DEBF0FBE5C
:10264000CDBF8C0185E0F801DE011D9601900D9251
:102650008A95E1F7F80180819181E2802BE6A22E34
:1026600021E0B22E60916E0170916F0161157105CC
:1026700009F43EC130916B0140916C01232F24235A
:102680002F3F09F435C1C380D480F0906D01F6016D
:10269000E61BF70BFF2009F4FBC020917001522FBD
:1026A000507FE83CF10508F0BBC0511178C0FE2C0A
:1026B000491321C038131FC0E1101DC02F702061C5
:1026C00020937001C5010E94C00D80917001F80136
:1026D00085838F2D61960FB6F894DEBF0FBECDBFF8
:1026E000DF91CF911F910F91FF90EF90DF90CF90EE
:1026F000BF90AF900895CD2829F0282F29232F3F90
:1027000009F014C120E0F22FF170DF2E20FF3DC050
:102710002091A2014091710156E0241315C08D87CC
:102720009E878D859E850E949108292F22952F7066
:102730002230F8F0243020F59F70F9F0F8019581EF
:10274000907FD9F4D12C1FC030E0529FF001539FED
:10275000F00D1124EE58FE4F6181961306C0608182
:10276000861303C06281E61210C02F5F3F4F2770AF
:10277000D4CF9F7011F0882329F3805E883010F346
:10278000C8010E94C00DFD2CA4CFEE2009F4A1CFFA
:1027900080917001816080937001F12C9ACF491370
:1027A00012C0381310C0E1100EC0F8012583C80113
:1027B0000E94C00D86E0F801ABE6B1E001900D92F9
:1027C0008A95E1F786CF8D879E878D859E850E94AD
:1027D0009B08882309F1EE20F9F080917001803286
:1027E00070F020916B0130916C0138872F8319862E
:1027F000DB86CA868C87CE0107960E94C00D86E0D4
:10280000F801ABE6B1E001900D928A95E1F70E94E4
:10281000B912FF24F3945DCFC8010E94C00DF9CF17
:1028200051110AC08BE691E00E94C00D86E0F501CF
:1028300011928A95E9F7B1CF49130FC038130DC033
:10284000E1100BC0F8012583C8010E94C00D86E08D
:10285000F50111928A95E9F73CCF8D879E878D858A
:102860009E850E949B088823B9F2EE20A9F28091F0
:102870007001803220F220916B0130916C013A831B
:1028800029831B82DD82CC828E83CE010196B5CF57
:10289000E83CF105E0F6FE2CEE2009F4BDCF49132B
:1028A00016C0381314C08091700180FD83CF982F1B
:1028B000907F09F47FCFF8018583903F09F477CFAB
:1028C000982F907F905F8F70892B858370CF8D8735
:1028D0009E878D859E850E949B08811190CF809157
:1028E0007001816080937001C8010E94C00DF1CE1B
:1028F000EE2009F491CF8D879E878D859E850E945D
:102900009B08F82E882309F487CF86E0F801ABE610
:10291000B1E001900D928A95E1F780916B01909161
:102920006C010E9491080E94B912D3CE21E02E259D
:10293000EACE1F93CF93DF93CDB7DEB767970FB67D
:10294000F894DEBF0FBECDBF342F4B8B252F5C8B91
:102950006D8B7E8B8F8B8E899F8961111092D20136
:102960001A8A198A3D872E876F87998B888B86E014
:10297000FE013D96DE01179601900D928A95E1F7D2
:10298000CE0107960E940F13882389F016E08091EC
:10299000A20190917101891349C067960FB6F8940E
:1029A000DEBF0FBECDBFDF91CF911F91089586E0AE
:1029B000FE013796DE01119601900D928A95E1F79E
:1029C0008A859B85892B11F38F81988589238F3F79
:1029D000E9F22091710130E0C901019687709927D1
:1029E0004091A2014817190671F40E94FC0A109246
:1029F00071011092A20186E0EBE6F1E0DF011D9289
:102A00008A95E9F7C3CF96E0929FD001939FB00DCE
:102A10001124AE58BE4FFE01319601900D929A9549
:102A2000E1F7809371010E94D803B0CF819FC0016C
:102A300011248E589E4F0E940F13882309F4ADCFA6
:102A40008091A20190E00196877099278093A2015E
:102A50009ECF8F929F92AF92BF92CF92DF92EF92D2
:102A6000FF920F931F93CF93DF9300D000D000D03D
:102A7000CDB7DEB705E411E0B7EECB2EB1E0DB2E2B
:102A8000F12CAA24A394B12CF80181918F01F89420
:102A9000E82FE295EF70F0E021A18F70A50102C050
:102AA000440F551F8A95E2F7CA01922F982B91A3E4
:102AB00092A18095892382A3789400C0EBE4F1E091
:102AC00030E020E0912C812C4191A42FA295AF7091
:102AD000B0E090968C9190E04F7002C095958795EC
:102AE0004A95E2F780FD59C0C501022E02C0880F49
:102AF000991F0A94E2F7882A992A2F5F3F4F2B30BB
:102B0000310511F7F801319780810E94590650EA8A
:102B10005A95F1F7F601808191818816990609F49A
:102B20003FC09182808281E0F82AF2E0CF0ED11C72
:102B300021E00834120709F0A7CF1091F401FF201B
:102B400089F181E0809362010E941F0390936101EB
:102B50008093600180916001909161010E94040363
:102B6000069720F1E12FF0E0EE0FFF1FE850FE4F37
:102B70008091E7019091E801918380838091E90140
:102B80009091EA01938382838091EB019091EC0113
:102B9000958384831092620109C090E080E0ABCFFE
:102BA00080E0C2CF809162018111D4CF0E94460A99
:102BB000E82E6091F401882309F470C08E010F5F44
:102BC0001F4F86E0F80111928A95E9F7862F90E071
:102BD000880F991FB80188509E4F0E947D1A81115D
:102BE00037C0809163018F5F80936301863008F462
:102BF00053C08091F30190E0FC01EE0FFF1FE850FD
:102C0000FE4F11821082FC01EE0FFF1FE650FE4FB7
:102C100011821082880F991FFC01E450FE4F11822F
:102C20001082F11001C0FE2C8F2D26960FB6F8945D
:102C3000DEBF0FBECDBFDF91CF911F910F91FF90EF
:102C4000EF90DF90CF90BF90AF909F908F900895BE
:102C500010926301E091F301F0E0EE0FFF1F9F017E
:102C600028503E4F6901D801AE01495F5F4FE12C0A
:102C7000F601619171916F012D913D91621773077A
:102C800039F0BF0162507109FB0131832083E82EC6
:102C9000A417B50769F7C5CFE12CC3CF70E0660F65
:102CA000771F68507E4F8091F30190E0880F991F45
:102CB00088509E4F0E94AA1AB4CF1F920F920FB64F
:102CC0000F9211242F933F934F935F936F937F93B2
:102CD0008F939F93AF93BF93CF93DF93EF93FF9324
:102CE000D091E900DF708091EC00C82FC17080FDA9
:102CF000C0E81092E9008091F000877F8093F00097
:102D000078940E94070B1092E9008091F00088608F
:102D10008093F000CD2BCF70C093E900FF91EF912D
:102D2000DF91CF91BF91AF919F918F917F916F91E3
:102D30005F914F913F912F910F900FBE0F901F9079
:102D400018951F920F920FB60F9211242F933F9355
:102D50004F935F936F937F938F939F93AF93BF93A3
:102D6000EF93FF938091E10082FF09C08091E20020
:102D700082FF05C08091E1008B7F8093E10080910C
:102D8000DA0080FF24C08091D80080FF20C08091AD
:102D9000DA008E7F8093DA008091D90080FF9BC09B
:102DA00080E189BD82E189BD09B400FEFDCF81E0EB
:102DB00080932B0280911E02811109C00E9475012F
:102DC0000E9440028091E20084608093E200809142
:102DD000E10080FF17C08091E20080FF13C0809166
:102DE000E2008E7F8093E2008091E2008061809318
:102DF000E2008091D80080628093D80019BC85E001
:102E000080932B028091E10084FF29C08091E20031
:102E100084FF25C080E189BD82E189BD89B5982FF5
:102E2000917080FFFBCF8091D8008F7D8093D80078
:102E30008091E1008F7E8093E1008091E2008F7E9F
:102E40008093E2008091E20081608093E2008091B3
:102E50002C02882309F445C084E080932B028091E2
:102E6000E10083FF27C08091E20083FF23C08091AF
:102E7000E100877F8093E10082E080932B02109233
:102E80002C028091E1008E7F8093E1008091E2002E
:102E90008E7F8093E2008091E20080618093E20067
:102EA00042E060E080E00E940E028091F0008860C5
:102EB0008093F000FF91EF91BF91AF919F918F911F
:102EC0007F916F915F914F913F912F910F900FBE26
:102ED0000F901F90189519BC10922B0210921E0291
:102EE00076CF8091E30087FD93E090932B02B7CFDC
:102EF000CDB7DEB760970FB6F894DEBF0FBECDBF7B
:102F000084B7877F84BF0FB6F894A895809160003E
:102F1000886180936000109260000FBE80E890E0AE
:102F20000FB6F89480936100909361000FBE85B74F
:102F3000806885BF85B7806885BF8FEF92E09093EA
:102F40005701809356010E9475010E9440028091B2
:102F5000E20084608093E200789480912B028823C1
:102F6000A1F01091E9001F709091EC00892F817001
:102F700090FD80E8182B1092E9008091E80083FD15
:102F80000E94070B1F701093E90082E084BD93E05C
:102F900095BD9AEF97BD80936E001092DD0110925F
:102FA000DE011092DF011092E0010E94460A809338
:102FB00000010E94460A81110E94711A809100014D
:102FC0008091000193E0811190E09093F40183E0FF
:102FD000891B8093F30186EF0E94590687EF0E94B8
:102FE000590681E30E9459060BE411E0F6E5EF2E45
:102FF000F1E0FF2EF80181918F010E945906E01641
:10300000F106C1F7E7EEF1E083EF91E0A8EFB1E060
:10301000119211921D921D928E179F07C9F790E091
:1030200080E00E944D1C8A3E9E4F11F00E94770A5C
:1030300082E090E00E94451C809311020E94690A80
:103040009093E6018093E50183E090E00E94451CA7
:10305000682F70E090E080E00E94DD040E94460A44
:10306000811102C00E94771A81E091E09093F601ED
:103070008093F50168E1E62EF12C70E4772EE4E010
:10308000CE2EE2E0DE2E50E1652E80912B0212E181
:10309000853009F44CC10E94291581110E94130347
:1030A000E2E1F2E0A8EFB1E010E000E0402E8D9008
:1030B0009D90819191918815990509F448C18825C1
:1030C0009925512CAA24A394B12C9C012A213B219F
:1030D000232B09F436C10E94460A8823A9F05F8297
:1030E00048868A209B2081E0892809F480E089872E
:1030F0000E941F038160782F9B878A874F815885A4
:1031000069858B850E949914000F111FF801EE5EEE
:10311000FD4F80819181A826B926B182A08286E0E8
:10312000EAE0F2E0DE01119601900D928A95E1F756
:10313000B0900C02A0900D0210910E0200910F02AF
:1031400010920C0210920D0210920E0210920F02B9
:103150008B2D8A2909F448C08091080290910902B8
:103160000E9404039C0190910702992309F431C144
:1031700023333105C8F19F3F19F09F5F90930702F9
:10318000BB2059F00E94DF059FEF1B140CF491E067
:10319000899F802D112480930C02AA2059F00E944F
:1031A000DF059FEF1A140CF491E0899F802D112404
:1031B00080930D0230910C023323B1F020910D0267
:1031C000222391F045EB3403C0011124992309F423
:1031D000D5C090930C0245EB2403900111243323B6
:1031E00009F4D0C030930D02812F802B09F448C020
:1031F00080910502909106020E9404039C01909127
:103200000402992309F4E0C025363105C8F19F3F37
:1032100019F09F5F90930402112359F00E94BD059D
:103220009FEF11160CF491E0899F802D112480935B
:103230000E02002359F00E94BD059FEF10160CF4FA
:1032400091E0899F802D112480930F0230910E020E
:103250003323B1F020910F02222391F045EB340388
:10326000C0011124992309F491C090930E0245EBFB
:10327000240390011124332309F48CC030930F02EE
:1032800080910C0290910D02892B90910E02892B56
:1032900090910F02892B11F00E942F0486E0FE010D
:1032A0003196AAE0B2E001900D928A95E1F70E9472
:1032B000230490911002891709F4E7CE0E94230499
:1032C00080931002E0CE80912B02843009F110929D
:1032D000F7010FB6F894A895E09260000FBE7092C7
:1032E000600083B7817F846083BF83B7816083BFC1
:1032F0007894889583B78E7F83BF0FB6F894A8958E
:1033000080916000886180936000109260000FBE21
:1033100080912A02882359F00E942915E8EFF1E0F4
:1033200081919191892BD1F5CE16DF06C9F7809155
:103330002B02853009F4C7CF0E94FC0A0E942304A7
:10334000AACE5394AA0CBB1C2BE05212BECE0F5F28
:103350001F4F0630110509F0A9CE8FEF8C878D879E
:103360001E860E941F038160782F988B8F874C8563
:103370005D856E8588890E949914D1CE81E0809305
:103380000C0229CF81E080930D022ECF81E0809343
:103390000E026DCF81E080930F0272CF69BC19BD20
:1033A00009B400FEFDCF8091D8008F7D8093D800B6
:1033B0008091E00082608093E0008091E00081FDD8
:1033C000FCCF0E94FC0AB3CF2D32314008F021CF50
:1033D00057CF2D32314008F0D0CE06CF0F931F9338
:1033E0000E94460A882321F01F910F910C94130329
:1033F0000E9413030091DD011091DE012091DF0195
:103400003091E001600F711F821F931F1F910F9178
:103410000895CF92DF92EF92FF926B017C010E94A0
:10342000460A81110EC00E941303C61AD70AE80A81
:10343000F90AC092DD01D092DE01E092DF01F09244
:10344000E001FF90EF90DF90CF90089578941F9265
:103450001FB61F9211248F939F93AF93BF938091B8
:10346000D9019091DA01A091DB01B091DC010196C4
:10347000A11DB11D8093D9019093DA01A093DB01C6
:10348000B093DC01BF91AF919F918F911F901FBEB0
:103490001F9018951F921FB61F9211248F939F9310
:1034A000AF93BF938091F701811113C08091D9012F
:1034B0009091DA01A091DB01B091DC014196A11D50
:1034C000B11D8093D9019093DA01A093DB01B093F1
:1034D000DC01BF91AF919F918F911F901FBE1F90F4
:1034E000189561E070E08CE091E00C94291B61E09C
:1034F00070E08CE091E00C94301BCF93DF93EB01F4
:103500000E94CA1B892B21F580913D0290913E02B9
:103510009983888380913F02909140029B838A83A4
:1035200080914102909142029D838C830E94EE190A
:103530006E5F7F4F8F4F9F4F6093390270933A02B7
:1035400080933B0290933C0281E0DF91CF910895FC
:1035500080E0FBCFCF93DF93EB0160913902709154
:103560003A0280913B0290913C020E94091A8881A4
:103570009981EDE3F2E0918380838A819B8193833B
:1035800082838C819D8195838483DF91CF9108957F
:103590008EE14A9B02C08150E1F74A9BFECF08951D
:1035A0005A9880E28A95F1F75A9A0895FC013BE017
:1035B0003A95F1F798E020E080E031E040E14A956B
:1035C000F1F7880F4A9B02C08160232742E04A95A9
:1035D000F1F7000040E14A95F1F7915079F790E159
:1035E0009A95F1F799B132E03A95F1F7000040E190
:1035F0004A95F1F792FB992790F992272081920F33
:1036000090830895EF92FF920F931F93CF93DF93D0
:103610000F92CDB7DEB719828C017C01E60EF11C4A
:103620000E151F0561F481E09981911180E00F90E2
:10363000DF91CF911F910F91FF90EF9008950E941D
:10364000C81ACE0101960E94D61AF80181938F0103
:10365000E7CF9093440280934302529A5A9A089576
:10366000909344028093430252985A9AEA9AE9E668
:10367000F0E080818F7C808308956150770B91E02A
:1036800001C0990F6A95EAF720E031E0911108C076
:10369000222391F05A9A80E28A95F1F75A98089578
:1036A000492F482339F05A9A232740E24A95F1F7E7
:1036B0009695ECCF5A98F9CF5A98EDCFFF920F9389
:1036C0001F93CF93DF93EC018C01060F111DC017E0
:1036D000D10731F4DF91CF911F910F91FF900895A1
:1036E000F9900E94D01A68E08F2D0E943D1BEFCF09
:1036F0001F920F920FB60F9211242F933F934F9367
:103700005F936F937F938F939F93AF93BF93CF9369
:10371000DF93EF93FF935A98529AC0914302D0914E
:1037200044026D81662321F08E819F810E945E1B81
:103730000E94D01A80E18A95F1F75A9852985A9AC5
:1037400080E18A95F1F76A81662309F18B819C817A
:103750000E94021BE881F981882311F088E001C0F2
:1037600082E080830E94C81AFF91EF91DF91CF9190
:10377000BF91AF919F918F917F916F915F914F9189
:103780003F912F910F900FBE0F901F901895E881D9
:10379000F981E4CFCF93DF93C0914302D0914402EB
:1037A000F894529A5A9885E08A95F1F70000529859
:1037B0005A9A80E28A95F1F74A9B0CC0529A5A9A1B
:1037C000E881F98181E08083789481E090E0DF9165
:1037D000CF9108956D81662381F08E819F810E9433
:1037E000021B81110AC0529A5A9AE881F98182E03B
:1037F0008083789482E090E0EACF0E94C81A80E249
:103800008A95F1F75A98529A80E18A95F1F76A8180
:10381000662321F08B819C810E945E1B0E94D01A3E
:10382000E881F9811082789490E080E0D0CF97FB16
:10383000072E16F4009407D077FD09D00E94311CA2
:1038400007FC05D03EF4909581959F4F08957095A3
:1038500061957F4F0895EE0FFF1F0590F491E02DC5
:103860000994AA1BBB1B51E107C0AA1FBB1FA617C7
:10387000B70710F0A61BB70B881F991F5A95A9F719
:1038800080959095BC01CD010895F999FECF92BD28
:1038900081BDF89A992780B50895A8E1B0E042E08B
:1038A00050E00C94791C262FF999FECF92BD81BD72
:1038B000F89A019700B4021639F01FBA20BD0FB66E
:1038C000F894FA9AF99A0FBE08950396272F0E944A
:1038D000541C0E94531C252F0E94541C242F0C940E
:1038E000541C0196272F0E94541C0C94531CDC017D
:1038F000CB01FC01F999FECF06C0F2BDE1BDF89AFB
:10390000319600B40D9241505040B8F70895F894A4
:10391000FFCFAA08AA08B308B308B508B308B308CC
:10392000B308AA08AA08BA08B308B308BA08EA0B89
:10393000120CA80D120CA80D450C660CA80D630DF9
:10394000700DD40FD40F4D104D10A710C1100910D9
:0A3950000910CC10A211B111B11141
:10395A000101031B09FA08F608F2080138020439C2
:10396A0002063D02818283E200E900EA00B500B660
:10397A0000B700CD008301CC008A01920194012195
:10398A0002230224022502260227022A02B300B4D5
:10399A00006F007000F6F73100000091909466976E
:0639AA00C63435F4F536C9
:00000001FF
